:020000040800F2
:10000000F0DE002029030008B742000891370008FD
:10001000B5420008890700082163000800000000BD
:10002000000000000000000000000000690200085D
:100030008D08000800000000C5020008D94400082F
:100040004303000843030008430300084303000878
:1000500043030008430300088F0800084303000817
:1000600043030008950800089B08000843030008A4
:100070004303000843030008430300084303000848
:100080004303000843030008430300084303000838
:100090008D0700084303000843030008A108000877
:1000A0004303000843030008430300084303000818
:1000B0004303000843030008430300084303000808
:1000C00043030008430300084303000843030008F8
:1000D000430300084303000843030008E9490008FC
:1000E00043030008430300084303000843030008D8
:1000F00043030008430300084303000843030008C8
:1001000043030008430300084303000843030008B7
:1001100043030008430300084303000843030008A7
:1001200043030008ED0700084303000843030008E9
:100130004303000843030008430300084303000887
:10014000990700084303000843030008B942000868
:1001500043030008F907000805080008B54A00082D
:100160004303000843030008430300084303000857
:100170004303000843030008430300080000000095
:10018000430300084303000800F002F800F05CF8A5
:100190000AA090E8000C82448344AAF10107DA45E2
:1001A00001D100F051F8AFF2090EBAE80F0013F0D8
:1001B000010F18BFFB1A43F001031847E487000042
:1001C000048800000A444FF0000C10F8013B13F0C3
:1001D000070408BF10F8014B1D1108BF10F8015BA0
:1001E000641E05D010F8016B641E01F8016BF9D193
:1001F00013F0080F1EBF10F8014BAD1C0C1B09D1EA
:100200006D1E58BF01F801CBFAD505E014F8016B5B
:1002100001F8016B6D1EF9D59142D6D370470000ED
:100220000023002400250026103A28BF78C1FBD8FF
:10023000520728BF30C148BF0B6070471FB508F098
:1002400025FB1FBD10B510BD00F0D5F91146FFF715
:10025000F5FF06F053FE00F0F3F903B4FFF7F2FFE9
:1002600003BC00F0F7F900002C4B19680868B0E8EF
:10027000F04F80F30988BFF36F8F4FF0000080F3D9
:10028000118870470000000008480068006880F38B
:1002900008884FF0000080F3148862B661B6BFF39F
:1002A0004F8FBFF36F8F00DF00BF00BF08ED00E08E
:1002B000DFF80C00016841F470010160704700BF75
:1002C00088ED00E0EFF30980BFF36F8F134B1A68DE
:1002D0001EF0100F08BF20ED108A20E9F04F1060CB
:1002E00009B44FF0500080F31188BFF34F8FBFF374
:1002F0006F8F07F087FD4FF0000080F3118809BC75
:1003000019680868B0E8F04F1EF0100F08BFB0EC95
:10031000108A80F30988BFF36F8F70478800002030
:10032000EFF30580704700000948804709480047FF
:10033000FEE7FEE7FEE7FEE7FEE7FEE7FEE7FEE795
:10034000FEE7FEE704480549054A064B70470000F2
:100350008545000889010008F09E0020F0DE00209D
:10036000F0BE0020F0BE002053EA020C00F06980CD
:100370002DE9F04B4FF00006002B1FBFB3FA83F5B9
:1003800003FA05F424FA05F65E4012BF1643B2FAEA
:1003900082F502FA05F4C5F120051EBF22FA05FC1C
:1003A00044EA0C04203556EA044C4FEA144418BFC2
:1003B000641C4FF000084FF00009904271EB030CF1
:1003C00039D3002919BFB1FA81F701FA07F6B0FA5B
:1003D00080F700FA07F6C7F120071EBF20FA07FCD6
:1003E00046EA0C062037B6FBF4FCA7EB0507103FE6
:1003F00007F01F0BCBF120060CFA0BFB2CFA06F6CC
:1004000044BFB3460026202FA4BF5E464FF0000B2A
:100410005BEA060C08BF4FF0010B19EB0B09ABFBB5
:10042000027C48EB0608C01B06FB02CC0BFB03CC8E
:1004300071EB0C01C1E70B46024641464846BDE858
:10044000F08B13B54FF000004FF00001AFF30080C8
:10045000BDE81C407047032A40F2308010F0030CC6
:1004600000F0158011F8013BBCF1020F624498BF07
:1004700011F801CB00F8013B38BF11F8013BA2F1A4
:10048000040298BF00F801CB38BF00F8013B11F01F
:10049000030300F02580083AC0F0088051F8043BBF
:1004A000083A51F804CBA0E80810F5E7121D5CBF2C
:1004B00051F8043B40F8043BAFF30080D20724BF5F
:1004C00011F8013B11F801CB48BF11F8012B24BFF3
:1004D00000F8013B00F801CB48BF00F8012B704742
:1004E00010B5203AC0F00B80B1E81850203AA0E8CF
:1004F0001850B1E81850A0E81850BFF4F5AF5FEA03
:10050000027C24BFB1E81850A0E8185044BF18C9B5
:1005100018C0BDE810405FEA827C24BF51F8043B5C
:1005200040F8043B08BF7047D20728BF31F8023BB0
:1005300048BF11F8012B28BF20F8023B48BF00F844
:10054000012B704702F0FF0343EA032242EA024212
:1005500000F002B84FF000020429C0F0128010F041
:10056000030C00F01B80CCF1040CBCF1020F18BF8F
:1005700000F8012BA8BF20F8022BA1EB0C0100F022
:100580000DB85FEAC17C24BF00F8012B00F8012BF5
:1005900048BF00F8012B70474FF0000200B513462A
:1005A00094469646203922BFA0E80C50A0E80C5093
:1005B000B1F12001BFF4F7AF090728BFA0E80C5044
:1005C00048BF0CC05DF804EB890028BF40F8042B3D
:1005D00008BF704748BF20F8022B11F0804F18BFAA
:1005E00000F8012B7047704770477047004870470C
:1005F000909E002070477546FFF7F8FFAE46050055
:100600006946534620F00700854618B020B5FFF72D
:1006100099FEBDE820404FF000064FF000074FF074
:1006200000084FF0000B21F00701AC46ACE8C00910
:10063000ACE8C009ACE8C009ACE8C0098D46704719
:1006400010B50446AFF300802046BDE81040FFF728
:1006500004BE000001491820ABBEFEE726000200E0
:10066000464910B54A6822F440324A604A684368F5
:100670001A434A6001684A6822F480724A6001683D
:100680004A68036942EA03224A6001684A6822F024
:1006900040724A6001684A6883681A434A60016888
:1006A0008A6822F400628A6001688A68C3681A4313
:1006B0008A60816A6FF07062D14201688A6822F0B4
:1006C00070628A6001688A680CD0836A1A438A6003
:1006D00001688A6822F040528A6001688A68C36AA9
:1006E0001A4301E022F040528A6001688A6822F0D1
:1006F00002028A6001688A68037E42EA43028A60D5
:1007000090F82010002901684A680FD042F4006276
:100710004A6001684A6822F460424A6001684A6897
:10072000174C436A04EB43331A4301E022F400629E
:100730004A600168CA6A22F47002CA620168CA6A21
:10074000838B104C04EB03531A43CA6201688A6816
:1007500022F400728A6001688A6890F8303042EAB8
:1007600043228A6001688A6822F480628A60016894
:100770008A68406942EA8020886010BD00230140F9
:1007800000E0FFFF0000F0FFFEE70000014800F07E
:1007900016BB000084090020014800F010BB0000D7
:1007A000AC090020002070470020704710B50022DF
:1007B0000449054804F0D5FA0449034804F0C8FA8E
:1007C000002010BDC4230020CC100020C41B00203A
:1007D00010B50146034804F0BBFA024804F09DFA44
:1007E000002010BDCC10002000207047014800F010
:1007F00085BD00000C100020014800F07FBD000006
:100800006C100020014800F079BD00004C0F002062
:1008100001681823CAB2103AB2FBF3F2054B6FF32A
:100820000901032A9B5CC36500D9091D816508463F
:1008300070470000D088000810B5014600208B6981
:100840008A6A4FF0C07453B1B3F5005F15D072B12E
:10085000012A0CD0022A0AD0032A09D104E01AB1D5
:10086000012A06D0022A03D1C96AC90100D5012094
:1008700010BDC96AA142FAD010BD002AF7D0012AE2
:10088000F2D0022AF3D0032AF3D010BD7047012022
:1008900000F082BE082000F07FBE102000F07CBE79
:1008A000202000F079BE72B6FEE7000078B5002483
:1008B000009490F83C20012A19D0012280F83C20B5
:1008C0000A6807230568092A13D9EE680A3A02EB79
:1008D000420293409E43EE600B788A680A3B03EB2A
:1008E00043039A400368DD682A43DA6010E002207F
:1008F00078BD2E6902EB420293409E432E610B7835
:100900008A6803EB43039A4003681D692A431A610E
:100910004A681F23072A13D205686E6B521E02EB2A
:10092000820293409E436E630B790A885B1E92B2EB
:1009300003EB83039A4003685D6B2A435A6327E005
:1009400005680D2A12D22E6BD21F02EB8202934051
:100950009E432E630B790A88DB1F92B203EB83035D
:100960009A4003681D6B2A431A6311E0EE6A0D3A40
:1009700002EB820293409E43EE620B790A880D3BA4
:1009800092B203EB83039A400368DD6A2A43DA627A
:10099000164B0568144A9D4206D10D68122D03D1ED
:1009A000556845F48005556005689D4218D10B686F
:1009B000102B01D0112B13D1536843F40003536063
:1009C000096810290CD10A490A4A0968B1FBF2F1F9
:1009D00001EB8101490000E0491E00910029FBD193
:1009E00080F83C40002078BD0023014000200140F9
:1009F0008400002040420F0070B504004FF0000555
:100A000003D0206C002610B107E0012070BD204605
:100A100000F01CF8666484F83C60206CC00610D4BA
:100A2000206C20F4885040F0020020642046FFF73C
:100A300017FE6664206C20F0020040F00100206484
:100A400000E0012584F83C60284670BD10B586B0F2
:100A5000044614216846FFF79FFD174B22680021CA
:100A600016489A4209D1016841F48071016000681A
:100A700000F48070059006B010BD114B9A42FAD177
:100A8000026842F480620260006800F480600590B1
:100A90000A481438026842F020020260006800F040
:100AA00020000590181500900320CDE9010169464A
:100AB000044800F07DFDDEE700200140443802409C
:100AC000002201400014024090F82020012A07D0A3
:100AD000022A05D0416A41F4802141620120704719
:100AE000006842690A43426100207047F0B590F8FF
:100AF00020500468A468012D05D0022D03D0416A5E
:100B000041F480215DE014F0406F01D1E50055D53E
:100B1000C4F30164022C03D9416A41F4000150E09E
:100B20000125A5401D608D684FF4C0739DB1CE684E
:100B300035434E6845EAC605066803EB0417F551D0
:100B40004FF4C275076805EB04150E697E51097DE7
:100B5000012905D009E00E88CD6845EA4655EBE746
:100B600001684E5946F480764E511179D5795679FF
:100B700041EA056195792D0445EA062529434FF49C
:100B8000C676056806EB0416A9511178D57841EAB6
:100B90000561957852782D0445EA022211434FF4FD
:100BA000C475026805EB04155151006803EB04118C
:100BB000425842F0010242500020F0BD416A41F427
:100BC000001141620120F0BD10B590F82020012AEB
:100BD00007D0022A05D0416A41F4802141620120F8
:100BE00010BD3B48D0F8002242F00102C0F80022BC
:100BF000D0F8002222F47C52C0F80022D0F8002263
:100C00004B6A42EA0322C0F800220A7D02F01F0369
:100C100001229A40D0F81C329343C0F81C32CB69B1
:100C2000B3B9D0F80C329343C0F80C328C894B68BE
:100C300064F31F434C6900EBC404C4F840320C89D0
:100C40000B6864F31F434C6900EBC404C4F84432DE
:100C5000CB69012B16D1D0F80C321343C0F80C32FB
:100C60000C884B6864F31F434C6900EBC404C4F860
:100C700040320C89CB6864F31F434C6900EBC40419
:100C8000C4F844328B69002BD0F804320ED01343E1
:100C9000C0F804320B69002BD0F8143208D013438B
:100CA000C0F81432096A012904D008E09343EFE741
:100CB0009343F5E7D0F81C121143C0F81C12D0F88A
:100CC000001221F00101C0F80012002010BD000048
:100CD00000640040704730B590F82040012C05D0EA
:100CE000022C03D0416A41F480215DE004680029B0
:100CF00055D02469A40754D04FF4D874056804EB88
:100D000001142D5915F00405956005682D594ED034
:100D1000ED08556005682C5904F00204D4604FF4C6
:100D2000DA74056804EB01142D5905F00F051561FF
:100D300005682D59C5F30725956105682C59240CC4
:100D400054614FF4DC72046802EB0112A4581C7069
:100D50000468A458240A5C700468A458240C9C708D
:100D60000468A258120EDA704FF4DE72046802EBC7
:100D70000112A4581C710468A458240A5C71046808
:100D8000A458240C9C710468A258120EDA710068F1
:100D900081B1016941F020010161002030BDE468AA
:100DA000A8E7416A41F400114162012030BD6D0D98
:100DB0001560AFE7C16841F02001C160EDE72DE9A2
:100DC000F05F0546006800244669D0F80490876803
:100DD000D0F80CB0D0F810A0D0F81880F10748D0A7
:100DE000F90714D001218160B80703D5284600F027
:100DF0005AFA0CE0780702D54FF4006407E0380790
:100E000002D54FF4805402E0284600F04BFAF80572
:100E100016D529684FF480708860B80503D5284638
:100E200000F043FA0CE0780502D544F4005407E0E2
:100E3000380502D544F4804402E0284600F034FA34
:100E4000F80316D529684FF480308860B80303D5BD
:100E5000284600F02CFA0CE0780302D544F4004454
:100E600007E0380302D544F4803402E0284600F05D
:100E70001DFA300707D55FEACB6004D5296810203A
:100E800044F40074C86070074FF0080707D55FEAA4
:100E90000B7004D52868C760284600F099F9B007A0
:100EA00006D52868C068800702D0284600F092F96D
:100EB000700607D55FEACA6004D52968102044F49B
:100EC00080640861B00607D55FEA0A7004D5286817
:100ED0000761284600F0B6F9F00606D528680069D3
:100EE000800702D0284600F0AEF9B00308D55FEACB
:100EF000C96005D5296810204860284600F0A4F98B
:100F0000F00307D55FEA097004D5286847602846D2
:100F100000F0CEF9300446D55FEA497040D5F005BF
:100F200004D55FEAC87001D044F00104B00504D5CF
:100F30005FEA887001D544F00204700504D55FEAC9
:100F4000487001D544F00404300529D518F0700F1D
:100F500026D008F07000402815D006DC102809D0F3
:100F600020280AD0302816D10AE050280ED0602858
:100F700011D10EE044F008040DE044F010040AE042
:100F800044F0200407E044F0400404E044F080040E
:100F900001E044F480742868816921F07001816166
:100FA000296804204860002C05D0686A20436862E4
:100FB0002846FFF78FFEBDE8F09F70B5040003D010
:100FC00094F8200010B104E0012070BD204600F02C
:100FD00081F82068016841F00101016000F0EAFB3E
:100FE0000546052604E000F0E5FB401B0A2811D861
:100FF00020684068C007F6D02068016821F002012F
:10100000016000F0D7FB05460BE000F0D3FB401B6E
:101010000A2806D9606A40F40030606284F82060D3
:10102000D2E7206840688007EFD4207E012820683E
:1010300001683DD021F080010160607E01282068B8
:10104000016838D021F040010160A07E01282068AD
:10105000016833D021F020010160E07E0128206882
:1010600001682ED041F010010160207F0128206826
:10107000016829D021F008010160607F0128206803
:10108000016824D021F004010160D4E90201084381
:10109000D4E90412114308436168491E08432168DA
:1010A000C86100206062012084F82000002070BD2B
:1010B00041F08001C0E741F04001C5E741F0200167
:1010C000CAE721F01001CFE741F00801D4E741F071
:1010D0000401D9E7F0B587B0044614216846FFF74C
:1010E0005BFA364B3648DFF8D0E01968D4F800C018
:1010F000334A03250226092710300024491CF445F1
:1011000022D11960012907D1016841F00071016005
:10111000006800F000700590106840F00800106052
:101120001068CDE9005600F00800CDE9047069466A
:101130002448CDE9024500F03BFA002206211420A4
:1011400000F01AFD142032E0DFF87CE0F44530D1E5
:10115000D0F800C04CF0806CC0F800C0D0F800C0DF
:1011600001290CF0806CCDF814C0196007D101681A
:1011700041F000710160006800F000700590106897
:1011800040F002001060106802AB00F00200059011
:101190006020CDE9000683E8B00069460B4800F006
:1011A00007FA00220621402000F0E6FC402000F073
:1011B000D5FC07B0F0BD000000640040080000202E
:1011C00030380240000C0240006800400004024039
:1011D0007047000000B5174989B0884218D107ABA5
:1011E0006A460021FFF777FD0098134A0146A0F2F6
:1011F0000120082806D2DFE800F0040404040707F1
:101200000707506009B000BDA1F205219160F9E720
:101210000A498842F6D107AB6A460021FFF75BFD19
:101220000098A0F540700338ECD107A9044805F0F8
:10123000B3F9E7E78409002028020020AC09002068
:101240005C9D0020704770477047000070B50446F1
:1012500090F82000012804D0606A40F40020606209
:1012600018E0022084F820002068016821F00101C4
:10127000016000F09FFA05460EE000BF00F09AFA08
:10128000401B0A2808D9606A40F4003060620520DB
:1012900084F82000012070BD20684068C007EDD1AF
:1012A000606270BD70477047704770477047704705
:1012B000704710B5040002D0607910B106E001203B
:1012C00010BD00202071204600F004F8012060715C
:1012D000002010BD08B500680649884208D10648BC
:1012E000016841F480510160006800F48050009072
:1012F00008BD000000300240303802402DE9F843BC
:1013000004464FF00009CDF8009063484FF41651A1
:10131000A56D0068B0FBF1F72E6894F85C1008200A
:1013200000FA01F131420FD021680A6852070BD54B
:101330000A6822F004020A6094F85C108840A860F1
:10134000606D40F00100606594F85C104FF001089A
:1013500008FA01F0304208D021684969090604D52D
:10136000A860606D40F00200606594F85C10042095
:101370008840304208D021680968890704D5A860F0
:10138000606D40F00400606594F85C1010208840A7
:10139000304218D021680968090714D5A860206870
:1013A0000168490304D50068000308D5A16C07E073
:1013B0000168C90503D4016821F008010160216CAE
:1013C00009B12046884794F85C10202088403042BC
:1013D00031D021680968C9062DD5A86094F8350078
:1013E00005282068016806D0490347D50068000336
:1013F0001DD4616C1CE021F0160101602068416978
:1014000021F080014161206C08B9A06C20B12068F6
:10141000016821F00801016094F85C103F208840C9
:10142000A86084F8358084F83490216D1FE0E16B6A
:1014300009B120468847606D00282BD0606DC00739
:1014400014D0052084F835002068016821F00101DE
:1014500001600098401C0090B84203D820680068E2
:10146000C007F6D184F8358084F83490E16C002907
:1014700010D001B02046BDE8F04308470168C90517
:10148000D5D4016821F01001016084F8358084F81A
:101490003490CCE7BDE8F883840000202DE9F041CA
:1014A000044600F087F906465CB1022084F8350056
:1014B000002584F834502068016821F001010160A2
:1014C0000DE00120BDE8F08100F074F9801B0528D3
:1014D00005D920206065032084F83500F2E72068F4
:1014E0000068C007F0D12268116820480140D4E9A3
:1014F00001031843D4E9033633431843636918439F
:10150000A3691843E3691843236A18430843616ACF
:10151000042903D1D4E90B13194308431060206850
:101520004069666A20F0070130460E43012704280F
:101530000CD1A06A0643E06A40B12046FFF77CF96F
:1015400020B14020606584F83570BAE720684661B4
:101550002046FFF75DF994F85C203F2191408160BF
:10156000656584F835700020ACE700003F8010F01E
:1015700070B5044600F01EF90546601C02D0044810
:101580000078044400F016F9401BA042FAD370BD65
:101590007800002070470000044910B50A68024234
:1015A00002D00860FFF7F6FF10BD0000143C0140B8
:1015B0002DE9F84FDFF8BCA1002201250AF1040B48
:1015C00003264FF00F090BF1040E00BF0B6805FA5C
:1015D00002F42340A34270D10F7907F00307012FD3
:1015E00001D0022F16D187684FEA420806FA08FC9C
:1015F00027EA0C07D1F80CC00CFA08FC4CEA070CDF
:10160000C0F808C04768A7430C79C4F3001494409D
:101610003C4344600C79E443A4070AD0C4684FEA11
:10162000420C06FA0CF7BC438F6807FA0CF7274305
:10163000C7600C7904F00304022C12D1D40800EB2B
:10164000840CDCF820405707FF0E09FA07F824EA5B
:101650000804D1F8108008FA07F848EA0408CCF822
:10166000208004684FEA420C06FA0CF7BC430F795D
:1016700007F0030707FA0CF7274307604C6814F4D8
:10168000403F70D03C4C276847F48047276024686F
:1016900022F0030704F480440094384C07EB040C58
:1016A000DCF8084897074FEA177809FA08F7BC43AF
:1016B000334FB84202D1002724E054E0314FB84202
:1016C00001D101271EE0304FB84201D1022719E0B5
:1016D0002E4FB84201D1032714E02D4FB84201D15B
:1016E00004270FE02B4FB84201D105270AE02A4F0B
:1016F000B84201D1062705E0284FB84201D107279B
:1017000000E0082707FA08F72743CCF80878DAF84A
:1017100000405746D1F804C09C435FEACC3C00D55A
:101720001C433C60DBF800405F46D1F804C09C439A
:101730005FEA8C3C00D51C433C60DEF800407746F5
:10174000D1F804C09C435FEACC2C00D51C433C601C
:10175000084F0C373C68D1F804C09C435FEA8C2CDE
:1017600000D51C433C60521C102AFFF42FAFBDE88B
:10177000F88F0000003C0140443802400030014036
:10178000000002400004024000080240000C024039
:10179000001002400014024000180240001C0240E9
:1017A0000069084000D0012070470AB1816170478C
:1017B0000904FBE7014880687047000078000020BA
:1017C00070B5040025D094F83D00002520B984F8B8
:1017D0003C50204600F0B8F8242084F83D002068F2
:1017E000016821F0010101602068016841F40041B5
:1017F00001602068016821F40041016000F0C2FF2F
:101800004D4A6168914201D84C4900E04C498842F8
:1018100001D2012070BD4B492368B0FBF1F15E6835
:1018200026F03F060E435E606368934206D94FF48C
:10183000967359434FF47A73B1FBF3F12368491C53
:101840001E6A26F03F06314319626168914210D842
:101850004900401EB0FBF1F2521CC2F30B02042AF5
:1018600001D2042022E0B0FBF1F0401CC0F30B00D9
:101870001CE0A268F2B301EBC10303EB0116431EA7
:10188000B3FBF6F35B1C43F480431B0549D092B3D2
:1018900001EBC10202EB0111401EB0FBF1F0401C54
:1018A000C0F30B0040F4804040F400402168CA6956
:1018B0004CF6FF739A431043C861D4E90710014303
:1018C0002068026822F0C00211430160D4E90301DC
:1018D00001432068826848F2FF339A4311438160D4
:1018E000D4E9050108432168CA6822F0FF021043C9
:1018F000C86001E00EE016E02068016841F00101D7
:1019000001602564202084F83D00256384F83E5062
:10191000002070BD01EB4106431EB3FBF6F35B1CD8
:10192000B3E70120C2E701EB4101401EB0FBF1F03B
:10193000401CC0F30B00B7E7A086010080841E00A6
:1019400000093D0040420F002DE9F04387B00746F3
:1019500014216846FEF720FE484C474B3A680026A3
:1019600046481221032510344FF001084FF00409B6
:101970009A4218D1026842F002020260006800F048
:101980000200059028028DE80301CDE9035969465C
:101990003B48FFF70DFE206840F4001020602068EF
:1019A00000F4001065E0374B9A4234D1026842F0EF
:1019B000200202600068CDE9005100F02000CDE96E
:1019C0000490CDE9028569462F48FFF7F1FD2068B4
:1019D00040F48000206020682D4C00F480000590C9
:1019E0002A4820604FF0606060604020C4E9020631
:1019F0000001C4E90406C001A661C4E907602046ED
:101A00006662FFF74BFD08B1FEF74DFF7C63A763ED
:101A100007B0BDE8F0831F4B9A42F9D1026842F04B
:101A200004020260026802F004020592026842F0B9
:101A30000102026000680E4600F001000590581592
:101A40008DE84101CDE9035969461348FFF7B0FD20
:101A50004FF480708DE84101CDE9035969460F4884
:101A6000FFF7A6FD206840F400002060206800F425
:101A700000000590CCE700000054004030380240E0
:101A8000000402400058004000140240B8600240C8
:101A9000D00A0020005C0040000802400000024024
:101AA0000248816802781144816070477800002004
:101AB0000B4810B5016841F400710160016841F400
:101AC00080610160016841F480710160032000F0D1
:101AD00073F80F2000F006F800F024F8002010BD85
:101AE000003C024070B50D4D04464FF47A712878E1
:101AF000B1FBF0F00A490968B1FBF0F001F00AFA15
:101B000048B9102C07D200222146501E00F034F8AC
:101B100000206C6070BD012070BD000078000020C6
:101B2000840000200C4882B0016841F480410160CB
:101B3000006800F4804000900748001F016841F0F1
:101B4000805101600068002200F0805000900F2159
:101B5000901E02B000F010B844380240002809DBA3
:101B600000F01F02012191404009800000F1E020B7
:101B7000C0F8001170470000F0B40E4B1B680C4613
:101B8000C3F30223C3F10705042D00D90425191D51
:101B9000072901D2002300E0DB1E012606FA05F129
:101BA000491E214099409E40761E16403143F0BCAC
:101BB00005F015B90CED00E0064900F007020868D1
:101BC0004FF6FF03184040EA0220034A1043086022
:101BD000704700000CED00E00000FA057047006857
:101BE000416200207047F0B50368586A39B19C6AB9
:101BF0004FF4827600EB144400204D1E0AE040EAC8
:101C0000024098620FE006EB8007DF59401C04EBAE
:101C10001744C0B2A842F6D344EA02404FF480729F
:101C200002EB810158500020F0BDD0F8040403F00D
:101C30001DBBC1EBC10200EB8202D0F80404926C20
:101C400003F08ABAC1EBC10200EB8202D0F80404AF
:101C5000D2F8082203F0D4BAD0F8040403F008BB89
:101C600070B504460B0601F00F00C0EBC00104EB99
:101C700081014FF001024FF0000503D581F83D20AE
:101C80003C3103E081F8FD5101F5FE71087094F8D4
:101C9000BC03012808D084F8BC23206803F0A6FE0A
:101CA00084F8BC53002070BD022070BD70B504469E
:101CB00001F00F006268904201D9012070BD0B064F
:101CC00001F00F01C1EBC10104EB81014FF00102F2
:101CD0004FF0000503D581F83D203C3103E081F849
:101CE000FD5101F5FE718D70087094F8BC03012858
:101CF00008D084F8BC23206804F072F884F8BC5340
:101D0000002070BD022070BD01F00F01C1EBC101C8
:101D100000EB8100D0F8140270472DE9F041044631
:101D20000F0601F00F00C0EBC00104EB81014FF082
:101D300001064FF0000503D581F83D603C3103E01A
:101D400081F8FD5101F5FE7108708A60CB704A7808
:101D500002B1C880022B00D10D7194F8BC03012898
:101D600009D084F8BC63206803F098FD284684F805
:101D7000BC53BDE8F0810220FBE770B50C4601F0D2
:101D80000F05C5EBC50100EB8101C1F81032C1F8A8
:101D900008220023C1F8143281F8FD3181F8FC518A
:101DA000036901F5FE71012B00D10A612207027C53
:101DB000006803D004F06CF8002070BD03F058FFF9
:101DC000FAE770B504460D4601F00F0061688842DD
:101DD00001D9012070BD29064FF000064FF0010225
:101DE00007D5C0EBC00104EB810181F83D203C31F7
:101DF00007E0C5EBC50104EB810181F8FD6101F548
:101E0000FE718A70087094F8BC03012807D084F82A
:101E1000BC23206804F010F8280702D007E0022055
:101E200070BD217C04F57172206803F0ADFF84F869
:101E3000BC63002070BD70B50C4601F00F05C5EB0A
:101E4000C50100EB81010B658A6400234B6501230A
:101E500081F83D3001F83C5F0369012B00D10A6134
:101E60002207027C006803D004F012F8002070BD45
:101E700003F0FEFEFAE700002DE9FC5F056804466A
:101E8000284604F036F900287ED1206804F05DF978
:101E9000002879D0206804F058F9800704D521681B
:101EA000486900F002004861206804F04EF9C1065C
:101EB00004F57170009034D52068816921F010011B
:101EC00081612F6A07F00F00C0EBC00004EB8006B1
:101ED000C7F3434006F5FE76022802D0062811D04B
:101EE0001AE047F6F070074216D0C7F30A121746F9
:101EF0002846F16804F02DF9F0683844F060B069C4
:101F0000384408E008222846009904F022F9B06914
:101F1000C7F30A110844B0612068816941F01001DB
:101F20008161206804F011F900034FF0010A4FF0BD
:101F3000080B5BD50026206804F0E6F80746DFF8BA
:101F4000689351E0F8074DD0F1B2206804F0F5F83D
:101F50008046C00707D005EB4611C1F808AB3146F3
:101F6000204602F0AFF95FEA087022D505EB461172
:101F7000C1F808BB2068016C00EB46100191D0F855
:101F8000082B494507D900E08BE1110403D54FF434
:101F90000041C0F8081B204600F076FA0198484539
:101FA00007D92069012804D120680121009A03F093
:101FB000EBFE5FEAC86004D505EB46111020C1F8BE
:101FC000080B5FEA886004D505EB46112020C1F8B4
:101FD000080B5FEA884005D505EB46104FF4005129
:101FE000C0F8081B7F08761C002FABD1206804F0D6
:101FF000ACF840034FF000095CD5206804F07DF890
:102000000746002654E0F80750D0F1B2206804F0EB
:1020100082F88046C00723D006F00F020AFA02F0C9
:10202000D5F834288243C5F8342805EB4610C0F8AB
:1020300008A9206901280FD1C6EBC60004EB800077
:10204000D0E911211144816436B9206D20B920688E
:102050000121009A03F098FEF1B22046FFF7E9FD56
:102060005FEA087003D505EB4611C1F808B95FEACD
:10207000C86004D505EB46111020C1F808095FEAD5
:10208000486004D505EB46114020C1F808095FEA15
:10209000887004D505EB46110220C1F808095FEAF3
:1020A000086003D53146204602F072F97F08761C9D
:1020B000002FA8D1206804F048F8002811DAD5F8DC
:1020C000040820F00100C5F8040894F8F40301287E
:1020D00029D0204600F0BCF92068416901F0004198
:1020E0004161206804F031F800050BD5D5F80808E7
:1020F000C00702D0204600F0EFF92068416901F4E2
:1021000000614161206804F020F8C00468D5D5F86A
:10211000040820F00100C5F804081021206803F02D
:10212000C5FF002127E084F8F49300212046FFF743
:1021300055FDD1E705EB41104FF67F32C0F8082975
:10214000D0F8003923F40013C0F80039D0F8003972
:1021500043F00063C0F80039C0F8082BD0F8002B1A
:1021600022F40012C0F8002BD0F8002B42F00062DD
:10217000C0F8002B491C60688842DBD8D5F81C08E1
:1021800040F00110C5F81C08206B60B1D5F8840838
:1021900040F00B00C5F88408D5F8440840F00B0067
:1021A000C5F844080CE0D5F8141842F22B0001439E
:1021B000C5F81418D5F8100840F00B00C5F8100841
:1021C000D5F8000820F4FE60C5F80008217C2068DE
:1021D000009A03F0D9FD2068416901F48051416102
:1021E000206803F0B2FF800415D5206803F096FB49
:1021F000206803F071FFE06000F0BEFA0146227B28
:10220000206804F005F8204600F00CF920684169C8
:1022100001F400514161206803F097FF000707D5E2
:10222000204600F019F92068416901F00801416178
:10223000206803F08AFFC00208D50021204600F084
:1022400035F82068416901F480114161206803F08C
:102250007CFF800208D50021204600F02BF8206882
:10226000416901F400114161206803F06EFF4000F4
:1022700007D52046FFF7D9FC2068416901F080416D
:102280004161206803F061FF40070AD52068456876
:10229000680702D52046FFF7DFFC20684168294324
:1022A0004160BDE8FC9F00000A30544FD0F80404A0
:1022B00003F02EB8D0F8040403F03AB82DE9F04149
:1022C0008AB0040005D094F8BD032668002520B12B
:1022D00008E001200AB0BDE8F08184F8BC53204634
:1022E00000F05EF8032084F8BD03F06BC00500D455
:1022F0002561206803F0B6FC04F11001282288460D
:102300006846FEF7EDF894E80F0003F015FB02268F
:10231000C8BB0021206803F03BFF002001270EE02E
:10232000C0EBC00104EB810181F83D7001F83C0F66
:10233000C880CD708D60CD60401CC0B24D616168B9
:102340008142EDD8002011E0C0EBC00104EB810117
:1023500081F8FD5181F8FC0181F8FF51C1F8045268
:10236000C1F80852401CC0B2C1F8105261688142E5
:10237000EAD8282241466846FEF7B2F894E80F00F2
:1023800003F0B6FB10B184F8BD63A2E784F83850BF
:1023900084F8BD73206803F09DFB00209AE70000DD
:1023A00010B586B0044614216846FEF7F5F820689B
:1023B000B0F1A04F2FD119480021026842F001026C
:1023C0000260006800F0010005904FF4C0500090DA
:1023D0000220CDE90101032003900A200490694600
:1023E0000F48FFF7E5F80D48001D016841F0800136
:1023F00001600A481430016841F4804101600068BE
:10240000002200F48040059005214320FFF7B4FB33
:102410004320FFF7A3FB06B010BD00003038024098
:102420000000024070B50446C068012570B1022862
:1024300001D0FEF738FA2946D4F8040402F0E4FF8C
:10244000D4F80404BDE8704002F097BF0025F2E71D
:10245000D0F8040402F0BEBFD0F8040402F0C4BFF8
:1024600010B5044690F8BC0301280BD0012084F875
:10247000BC0384F83810206803F0B8FE002084F80C
:10248000BC0310BD022010BDD0F8042400F571710A
:10249000104602F0C5BF10B50446006894F8BC139E
:1024A000012906D0012184F8BC13A16A012902D0B8
:1024B00008E0022010BDA169012903D0816B41F41D
:1024C00080318163206803F0D7FD206803F0F4FABF
:1024D000002084F8BC0310BD10B50446D0F80404F5
:1024E00002F0E0FF2068D0F8001E41F00101C0F8C2
:1024F000001E206A002804D00248016841F006014D
:10250000016010BD10ED00E02DE9F84305460068BC
:102510004FF00109C1074FF0000601D1400727D550
:10252000DFF80C81C8F86860FFF744F90746414CB2
:1025300005E000BFFFF73EF9C01B022857D820680E
:102540000001F7D468688101287A41EA00703949AE
:1025500084310860C8F86890FFF72CF9074604E05A
:10256000FFF728F9C01B022841D820680001F7D5E1
:102570002878800752D52F484030016841F08051BB
:10258000016000682C4C00F080500090206840F4FE
:1025900080702060FFF70EF9074604E0FFF70AF9A4
:1025A000C01B022823D82068C005F7D5214C703401
:1025B000206810F4407020D0A98901F44071814254
:1025C0001BD020681D4920F44070C1F800900E60B7
:1025D00020602068C00710D0FFF7ECF8064641F2F3
:1025E000883707E0FFF7E6F8801BB84202D90320DE
:1025F000BDE8F88320688007F4D5E9680D48C1F389
:1026000001220830032A0BD0016821F4F81101607F
:102610002068A989C1F30B01084320600020E7E787
:102620000268074B22F4F81219400A430260EFE7F0
:10263000000047420038024000700040400E474210
:10264000FFFCFF0F2DE9F0470E46050065D0DFF8CF
:102650001481D8F80000F7B200F00700B04207D2AA
:1026600088F80070D8F8000000F00700B04254D19C
:1026700028683D4C810712D5400703D5206840F4F7
:10268000E05020602878000703D5206840F46040BF
:1026900020602068A96820F0F000084320602878B6
:1026A000C0072DD0304968680839012812D00228A7
:1026B00013D0032811D00968890700292DDA216871
:1026C00021F0030101432160FFF774F8814641F2D4
:1026D000883A0EE009688903EFE709688901ECE7A9
:1026E000FFF768F8A0EB0901514502D90320BDE8C6
:1026F000F0872068696800F00C00B0EB810FEFD123
:10270000D8F80010404601F00701B14207D9077020
:10271000006800F00700B04201D00120E7E7287808
:10272000400705D52068E96820F4E05008432060A0
:102730002878000706D52068296920F4604040EA1F
:10274000C100206000F03EF82168084AC1F303117F
:10275000515CC8400649086006480068FFF7C2F9A6
:102760000020C4E7003C024008380240D888000836
:10277000840000207C0000200148006870470000B1
:10278000840000200448054900680968044AC1F330
:102790008221515CC8407047840000200838024004
:1027A000E88800080448054900680968044AC1F33C
:1027B0004231515CC8407047840000200838024014
:1027C000E8880008154810B5006810F00C0214489D
:1027D00013D01449042A0FD0082A0ED10F4C241FFD
:1027E0002268236802F03F025B0207D52068C0F32D
:1027F0008810A0FB010106E0084610BD2168C1F366
:102800008811A1FB00010023FDF7AEFD2168C1F393
:102810000141491C4900B0FBF1F010BD08380240ED
:102820000024F400001BB7002DE9F84F04006ED01F
:102830002078DFF84C93C007A9F104054AD009F1CC
:1028400004000168C1F38101012908D00068C0F3C8
:10285000810002280AD1D9F80000400206D5286874
:10286000800337D560680028E1D033E06068B0F5B8
:10287000803F10D0B0F5A02F286810D020F4803011
:102880002860286820F4802028606068A8B1FEF7DE
:1028900091FF06460DE0286840F48030F4E740F4EC
:1028A00080202860F7E700BFFEF784FF801B6428C4
:1028B00073D828688003F7D50CE0FEF77BFF064647
:1028C00005E000BFFEF776FF801B6428F0D828687B
:1028D0008003F7D42078DFF8AC8280074FF0000A3D
:1028E0003ED5A748001D016811F00C0F08D0006804
:1028F000C0F3810002280BD1D9F80000400207D4B0
:102900002868800716D5E068012800D112E033E17D
:10291000E068B8B10120C8F80000FEF74BFF06469A
:1029200005E000BFFEF746FF801B0228C0D82868DC
:102930008007F7D52868216920F0F80040EAC10037
:1029400028600DE0C8F800A0FEF734FF064604E05A
:10295000FEF730FF801B02281FD828688007F7D4B5
:102960002078000722D5864F87486169703771B19A
:1029700001210160FEF71EFF064604E0FEF71AFF84
:10298000801B022809D838688007F7D50EE0C0F808
:1029900000A0FEF70FFF064605E082E0FEF70AFF03
:1029A000801B02287DD838688007F7D4207840073C
:1029B00068D5DFF8CCB100270BF13C0BDBF8000049
:1029C000C0000BD4DBF8001041F08051CBF80010B0
:1029D000DBF80000012700F0805000906B4E30685B
:1029E000C00510D4306840F480703060FEF7E2FE1D
:1029F000009005E0FEF7DEFE0099401A022850D84C
:102A00003068C005F6D55E4EA0686C3601280FD040
:102A10000528306810D020F001003060306820F0C8
:102A200004003060A068B8B1FEF7C4FE00900FE06B
:102A3000306840F00100F4E740F004003060F7E750
:102A4000FEF7B8FE0099411A41F28830814266D8FB
:102A500030688007F4D50EE0FEF7ACFE009007E08A
:102A6000FEF7A8FE0099411A41F28830814256D8FB
:102A700030688007F4D42FB1DBF8001021F08051CA
:102A8000CBF80010A069C8B33D49091D0968C1F31E
:102A9000810102294AD00228504607D0C8F86000B8
:102AA00000E03CE0FEF786FE04463BE04746C8F8FF
:102AB0006000FEF77FFE064605E000BFFEF77AFEE7
:102AC000801B02282BD828688001F7D4D4E907019D
:102AD0000843A16A2E4A490802EB0141626A41EAB1
:102AE0008211084394F82C1040EA0161C9F80010E3
:102AF00001203866FEF75EFE044606E03EE000BFB9
:102B0000FEF758FE001B022809D828688001F7D577
:102B100034E000BFFEF74EFE001B022802D903205E
:102B2000BDE8F88F28688001F4D427E00128F7D0A9
:102B3000D9F80000E26900F4800191421CD1226AB8
:102B400000F03F01914217D147F6C071626A01401F
:102B5000B1EB821F10D1A26A4FF0FF3300F4403175
:102B600003EB5202B1EB024F06D194F82C1000F0A7
:102B70007060B0EB016F01D00120D1E70020CFE7FA
:102B80000438024000004742800E47420070004077
:102B90000000FFFF70B5040003D06079002510B17C
:102BA00005E0012070BD2571204600F00DF80220DF
:102BB00060712068016841F00401016001206071CA
:102BC000A560002070BD000008B500680649884275
:102BD00008D10648016841F040010160006800F03A
:102BE0004000009008BD0000000806503438024044
:102BF00070B5040002D0607F10B106E0012070BD06
:102C000000202077204600F049F8022060772168F4
:102C1000CA204862216853204862204601F03AFCED
:102C2000FF25042618BB206881681B4A114081607B
:102C30002168886862681043D4E904231A4310436A
:102C400088602168E068086120680169228941EA9A
:102C5000024101612068C16821F08001C1602068E3
:102C60008068800607D4204600F036F818B1206846
:102C700045626677C2E72068016C21F48021016417
:102C80002068016CA269114301642068456201203B
:102C90006077002070BD0000BFFF8FFF1FB50021CF
:102CA00000910191029103910068084988420CD17A
:102CB00002200090064803906846FFF725FC08B103
:102CC000FDF7F1FD0349012008601FBD0028004009
:102CD00000031E003C0E474270B504460068C16800
:102CE00021F0A001C160FEF765FD05464FF47A763C
:102CF00007E000BFFEF75EFD401BB04201D9032094
:102D000070BD2068C0688006F4D5002070BD70B525
:102D1000040009D0606A002540B125616561A562A3
:102D200094F8510040B10CE0012070BD6068B0F52E
:102D3000827FF4D0E561F2E784F85050204600F03D
:102D400045F8022084F851002068016821F0400114
:102D50000160A088218900F4827001F404410843D5
:102D6000A18901F400610843217C01F002010843BC
:102D7000217D01F001010843218B01F4007108431A
:102D8000217F01F03801084394F8201001F0800100
:102D90000843218D01F40051084321680860A069AF
:102DA000042101EA104094F8241001F010010843B6
:102DB000216848602068C16921F40061C1616565CE
:102DC000012084F85100002070BD00002DE9F0477B
:102DD00086B0054614216846FDF7DEFBDFF818C112
:102DE000296846480226012703220523DFF81081BF
:102DF0000024614560D141491431D1F800C04CF440
:102E0000805CC1F800C0096801F480510591016837
:102E100041F002010160016801F0020105910168C1
:102E200041F0010101600068914600F00100059049
:102E300018209A468DE8C10669464046FEF7B8FB61
:102E400080208DE8C10669462E48FEF7B1FB2F4E63
:102E50002D484FF0C0673060C6E901744FF48068B8
:102E6000C6E9034874617812B461C6E90740304688
:102E70007462FEF713FB08B1FDF715FDEE64B56350
:102E8000224E214860361830E6E802074020A6E8C6
:102E90001101C00246F81449B461C6E907401B4855
:102EA00074626030FEF7FAFA08B1FDF7FCFCAE641C
:102EB000B56306B0BDE8F087154CA142F9D10F49C2
:102EC00010310C6844F480440C60096801F48041BE
:102ED0000591016841F0020101600068694600F057
:102EE000020005904FF460408DE8C1004046CDE9F6
:102EF0000323FEF75DFBDCE7003001403038024081
:102F0000000402400000024040640240100C002017
:102F10000038004010B5401EB0F1807F01D3012081
:102F200010BD4FF0E02460610F21601703F057FFE0
:102F30000020A06107202061002010BD10B590F88E
:102F40003C20012A22D0012280F83C20CA688C68EB
:102F500022F4407222434C6822F4806222430C68BF
:102F600022F4006222430C6922F4805222434C690D
:102F700022F400522243C969002322F480420A430A
:102F800001684A6480F83C30002010BD022010BD6A
:102F900070B590F83C20012A32D0012480F83C40E2
:102FA000022280F83D2003685A689D6822F070066E
:102FB0000A6832435A60134B02689A4214D0B2F145
:102FC000804F11D0104B9A420ED0104B9A420BD02A
:102FD0000F4B9A4208D00F4B9A4205D00E4B9A42A3
:102FE00002D00E4B9A4204D1496825F08003194360
:102FF000916080F83D40002180F83C10084670BD8B
:10300000022070BD000001400004004000080040A4
:10301000000C004000040140004001400018004046
:1030200010B5040003D094F83D0010B107E0012072
:1030300010BD002084F83C00204600F01FF802205C
:1030400084F83D00211D206801F0A6FA012084F8D3
:10305000460084F83E0084F83F0084F8400084F87D
:10306000410084F8420084F8430084F8440084F866
:10307000450084F83D00002010BD000008B523493C
:10308000026823488A4207D1016841F001010160CA
:10309000006800F001000AE01D491E4B091F9A421A
:1030A00007D1086840F00200086008681FE000903F
:1030B00008BD194B9A4207D1086840F00400086027
:1030C000086800F00400F2E7144B9A4207D1086840
:1030D00040F008000860086800F00800E7E71049C1
:1030E0008A4207D1016841F002010160006800F0E6
:1030F0000200DCE70B498A42DAD1016841F4003171
:103100000160006800F40030D1E7000000000140D9
:10311000443802400004004000080040000C004019
:10312000000401400044014090F83D10012901D005
:1031300001207047022180F83D1000681149884243
:1031400014D0B0F1804F11D00F4988420ED00F49F2
:1031500088420BD00E49884208D00E49884205D0DB
:103160000D49884202D00D49884204D1816801F09E
:103170000701062903D0016841F001010160002028
:1031800070470000000001400004004000080040BB
:10319000000C0040000401400040014000180040C5
:1031A00070B5044690F83C000025012817D0012690
:1031B00084F83C60022084F83D002068826822F098
:1031C000770222F47F4282600868502838D00DDCF4
:1031D00020284FD005DC90B3102811D14AE00220FE
:1031E00070BD302846D040280AD13BE060282FD05F
:1031F00070280DD0B0F5805F03D0B0F5005F12D01D
:10320000012584F83D60002084F83C00284670BD0C
:10321000CB68D1E90121206801F022FA2068816899
:1032200041F0770109E0CB68D1E90121206801F084
:1032300017FA2068816841F480418160E1E719E074
:10324000CA684968206801F0DFFA5021206806E06A
:10325000CA684968206801F0E8FA6021206801F036
:1032600009FACEE7CA684968206801F0CDFA402122
:103270002068F4E7226801461046F0E72DE9F041A6
:1032800086B0044614216846FDF786F9474A21684E
:10329000474802240125914210D1016841F01001F4
:1032A00001600068694600F0100005904FF4D440BA
:1032B0008DE831003F48CDE9034513E03E4ADFF891
:1032C000FC80914213D1016841F004010160006863
:1032D000694600F00400059090158DE831000394D4
:1032E00040460494FEF764F906B0BDE8F081344A24
:1032F000032691420ED1016841F008010160006887
:10330000694600F00800059010148DE871002D4802
:103310000494E7E72C4A914210D1016841F0800102
:1033200001600068694600F0800005904FF4E050AD
:103330008DE83100039425480494D3E7244A4027BC
:10334000914220D1016841F480710160016801F46B
:1033500080710591016841F00401016000680097E7
:10336000CDE9014500F00400CDE90460694603940D
:103370001848FEF71DF90097CDE90145CDE9034650
:1033800069464046AEE7144A9142ADD1016841F02A
:103390002001016000680097CDE9014500F02000A0
:1033A000CDE90460694603940C489BE700000140A6
:1033B0003038024000100240000400400008024083
:1033C00000080040000C0240000C0040001C0240BD
:1033D000000401400020024000440140001402406B
:1033E00070B5044690F83C0000260D4601280FD029
:1033F000012084F83C006AB1042A1DD0082A2FD08D
:103400000C2A3FD00126002084F83C00304670BDD5
:10341000022070BD206801F035F92068816941F013
:10342000080181612068816921F0040181612068BF
:1034300081692A69114311E0206801F053F920687D
:10344000816941F4006181612068816921F48061B2
:103450008161206881692A6941EA02218161D2E79C
:10346000206801F075F92068C16941F00801C16167
:103470002068C16921F00401C1612068C1692A691D
:10348000114311E0206801F097F92068C16941F407
:103490000061C1612068C16921F48061C161206857
:1034A000C1692A6941EA0221C161ACE710B5040093
:1034B00003D094F83D0010B107E0012010BD0020BA
:1034C00084F83C00204600F01EF8022084F83D00FD
:1034D000211D206801F060F8012084F8460084F87E
:1034E0003E0084F83F0084F8400084F8410084F8EE
:1034F000420084F8430084F8440084F8450084F8CE
:103500003D00002010BD704770B5040004D094F851
:103510003D00002510B106E0012070BD84F83C504C
:10352000204600F023F8242084F83D002068C1687C
:1035300021F40051C160204601F0D0F920680169F2
:1035400021F4904101612068416921F02A01416123
:103550002068C16841F40051C1602564202084F8CE
:103560003D0084F83E00002070BD00002DE9F04FC2
:1035700087B0044614216846FDF70EF87948DFF855
:10358000E0811438D4F800C07649022603220723CC
:10359000002507154FF0006A4FF0400BC44547D196
:1035A000D1F800C04CF0100CC1F800C0096801F05F
:1035B00010010591016841F002010160016801F00C
:1035C00002010591016841F0010101600068CDE947
:1035D000025200F0010005908020CDE900069146DE
:1035E0009846694604936048FDF7E2FF3002CDE952
:1035F0000006CDE902596946CDF810805B48FDF719
:10360000D7FF5C4E5A48C6E903577561B56186E835
:10361000010CB801C6E9075030467562FDF73EFF60
:1036200008B1FDF740F96663B46307B0BDE8F08FF9
:10363000DFF844814FF40039C4453AD14949091FA4
:10364000D1F800C04CF4802CC1F800C0096801F426
:1036500080210591016841F0040101600068029534
:1036600000F0040005904FF44060CDE90006694683
:103670004248CDE90323FDF79BFF3E4E40486036AC
:103680003060C6E901A5C6E903577561B561C6E9B1
:10369000075930467562FDF701FF08B1FDF703F9E0
:1036A000A663002204212720B463FEF765FA2720D1
:1036B00052E0344B9C45B8D10B6843F020030B60BB
:1036C000096801F020010591016841F040010160A5
:1036D0000068029500F0400005904FF48440CDE969
:1036E00000060820CDE9032069462748FDF760FF62
:1036F000204E1F48C036903830604FF02068C6E931
:103700000185C6E903577561B561C6E907593046B9
:103710007562FDF7C3FE08B1FDF7C5F8A663B46393
:103720001A4E1348C6E9035775611838B56186E823
:1037300001094FF48030C6E9075030467562FDF745
:10374000ADFE08B1FDF7AFF8666300220521472002
:10375000B463FEF711FA4720FEF700FA65E70000B0
:1037600000100140443802400004024000000240C2
:10377000B86402404C0F002000480040000802409E
:103780002860024000140140001802406C10002024
:10379000FEE70000F0B500230A24302537261F4637
:1037A00011E000BFB4EB107F02D905EB107C01E003
:1037B00006EB107C01F813C001EB430C00015B1C0D
:1037C0008CF80170DBB29342ECD3F0BD7FB50024DE
:1037D00015480094019402941249039401604FF437
:1037E0000031C0E901140461047680F820400F49DB
:1037F000C0E90A140125C561C46080F83040456104
:10380000FDF7FAF808B1FDF74EF81020CDE90005F4
:10381000694602940448FDF749F8002801D0FDF7F5
:1038200042F87FBD00200140F40800200100000F95
:103830007FB5002415480094019402941249039422
:1038400001604FF40031C0E901140461047680F88E
:1038500020400F49C0E90A140125C561C46080F801
:1038600030404561FDF7C8F808B1FDF71CF80820A5
:10387000CDE90005694602940448FDF717F80028D1
:1038800001D0FDF710F87FBD002201403C09002067
:103890000100000F0F4810B50D4901600321416080
:1038A00000214FF410228160C0E903124FF400128E
:1038B0004261017641768176C17601774177FDF7E5
:1038C0007CFB002803D0BDE81040FCF7ECBF10BD26
:1038D00000640040840900200F4810B50D490160C4
:1038E0000321416000214FF410228160C0E90312DE
:1038F0004FF400124261017641768176C1760177FC
:103900004177FDF75AFB002803D0BDE81040FCF7D3
:10391000CABF10BD00680040AC090020074910B5BF
:10392000054808600846FDF7C4FC002803D0BDE840
:103930001040FCF7B8BF10BD003002400C00002062
:10394000254808B5016841F480010160016801F46F
:1039500080010091016841F40011016000680022BB
:1039600000F40010009005210C20FEF705F90C2052
:10397000FEF7F4F8002205212F20FEF7FDF82F2096
:10398000FEF7ECF8002205213920FEF7F5F8392082
:10399000FEF7E4F8002205213A20FEF7EDF83A2080
:1039A000FEF7DCF8002205213B20FEF7E5F83B207E
:1039B000FEF7D4F8002205214520FEF7DDF845206A
:1039C000FEF7CCF8002205214620FEF7D5F8BDE829
:1039D00008404620FEF7C2B83038024010B58EB01D
:1039E0001C220B496846FCF77BFD0021684603F06A
:1039F000D9FA084C06491C2260601C3107A8FCF764
:103A00006FFD002107A803F0CDFA20600EB010BDB5
:103A100098880008000000202DE9F04387B01421A9
:103A20006846FCF7B9FD68480025016841F00201CD
:103A30000160016801F002010591016841F0400157
:103A40000160016801F040010591016841F0010148
:103A50000160016801F001010591016841F0080170
:103A60000160016801F008010591016841F004015D
:103A70000160016801F004010591016841F4807161
:103A80000160016801F480710591016841F0200135
:103A90000160016801F020010591016841F0800199
:103AA0000160016801F080010591016841F0100199
:103AB00001600068454F00F0100005900122402190
:103AC0003846FDF772FEDFF80881012210214046DA
:103AD000FDF76BFEDFF8FC90012241F20101484640
:103AE000FDF763FE8020CDE90005012469460294BC
:103AF0003948FDF75DFD4020CDE900040294694698
:103B000038460394FDF754FD09204FF40416CDE91F
:103B10000006694602943846FDF74AFD0720CDE9C4
:103B200000052E4F694638460295FDF741FDCDE967
:103B30000045694640460294FDF73AFD1020CDE964
:103B40000004022569464046CDE90245FDF730FDF7
:103B50003020CDE90006694602943846FDF728FD7D
:103B60002003CDE900040294694648460394FDF71A
:103B70001FFD0094694648460194CDE90245FDF7D2
:103B800017FD062100220846FDF7F6FF0620FDF787
:103B9000E5FF002205210920FDF7EEFF0920FDF7D2
:103BA000DDFF002205210A20FDF7E6FF0A20FDF7D0
:103BB000D5FF002205211720FDF7DEFF1720FDF7B6
:103BC000CDFF07B0BDE8F083303802400018024056
:103BD00000000240000402400020024000080240B1
:103BE0000D4810B50B4901600C49416000214FF4AC
:103BF00080428160C0E9031241618161C16101625B
:103C0000FDF7DEFD002803D0BDE81040FCF74BBEF9
:103C100010BD000000540040D4090020801A0600A6
:103C20000D4810B50B4901600C49416000214FF46B
:103C300080428160C0E9031241618161C16101621A
:103C4000FDF7BEFD002803D0BDE81040FCF72BBEF9
:103C500010BD000000580040280A0020801A06000D
:103C60000D4810B50B4901600C49416000214FF42B
:103C700080428160C0E9031241618161C1610162DA
:103C8000FDF79EFD002803D0BDE81040FCF70BBEF9
:103C900010BD0000005C00407C0A0020801A060075
:103CA000074910B5054808600846FEF773FF00286D
:103CB00003D0BDE81040FCF7F6BD10BD000806506B
:103CC000300B00200C4810B50A49016000217C220D
:103CD000C0E9011240F67F42C0E9032141618161E0
:103CE000FEF786FF002803D0BDE81040FCF7DBBDDF
:103CF00010BD000000280040400B0020104810B507
:103D00000E4901604FF482714160002102228160FE
:103D1000C0E9031201224261520282613822C0E9E5
:103D20000721416281620A21C162FEF7F0FF00288B
:103D300003D0BDE81040FCF7B6BD10BD0030014017
:103D4000600B0020104810B50E4901604FF48271DD
:103D50004160002102228160C0E903120122426118
:103D6000520282613822C0E90721416281620A2140
:103D7000C162FEF7CCFF002803D0BDE81040FCF77D
:103D800092BD10BD00380040B80B002010B588B0BF
:103D90001C216846FCF700FC144813490024C0E9C4
:103DA000001441F28731C0E9024104618461FFF7E8
:103DB00037F908B1FCF777FD0C48FFF777FB08B13E
:103DC000FCF771FD6020CDE90004029400226946F1
:103DD00006480494FFF704FB08B1FCF764FD0348B0
:103DE000FFF74CFA08B010BD00440140380E002027
:103DF00010B596B000240F9410941194129413945B
:103E00001C2168461494FCF7C7FB202107A8FCF787
:103E1000C3FB354833490160A721C0E9011444F6CA
:103E20001F61C0E9031444618461FFF7F9F808B128
:103E3000FCF739FD4FF480500F900FA92A48FFF787
:103E4000AFF908B1FCF72FFD2748FFF72FFB08B1AA
:103E5000FCF729FD139413A923481494FFF798F84D
:103E600008B1FCF720FD602000904FF47A70CDE996
:103E70000104039404940594002269461A480694A8
:103E8000FFF7AEFA08B1FCF70EFD042269461648AA
:103E9000FFF7A6FA08B1FCF706FD082269461248AA
:103EA000FFF79EFA08B1FCF7FEFC0C2269460E48AB
:103EB000FFF796FA08B1FCF7F6FC0794089409940A
:103EC0004FF400500A94CDE90B4007A906480E9420
:103ED000FFF734F808B1FCF7E6FC0348FFF7CEF92A
:103EE00016B010BD00000140D00C002010B58EB0FF
:103EF00000240794089409940A940B941C216846A2
:103F00000C94FCF749FB1E481C49C0E9001442F21E
:103F1000CF01C0E9024104618461FFF781F808B173
:103F2000FCF7C1FC4FF48050079007A91448FFF735
:103F300037F908B1FCF7B7FC1148FFF7B7FA08B139
:103F4000FCF7B1FC0B940BA90D480C94FFF720F87B
:103F500008B1FCF7A8FC6020CDE900040294082217
:103F6000694607480494FFF73BFA08B1FCF79BFC4D
:103F70000348FFF783F90EB010BD000000040040B5
:103F8000180D002010B58EB00024079408940994F1
:103F90000A940B941C2168460C94FCF7FDFA1E4809
:103FA0001C490160A721C0E901144FF6FF71C0E967
:103FB00003148461FFF734F808B1FCF774FC4FF484
:103FC0008050079007A91448FFF7EAF808B1FCF7FA
:103FD0006AFC1148FFF76AFA08B1FCF764FC0B941D
:103FE0000BA90D480C94FEF7D3FF08B1FCF75BFC5E
:103FF0006020CDE900040294082269460648049432
:10400000FFF7EEF908B1FCF74EFC0348FFF736F96D
:104010000EB010BD00080040600D002010B58EB03D
:1040200000240794089409940A940B941C21684670
:104030000C94FCF7B1FA26482449C0E900144FF665
:10404000FF71C0E9024104618461FEF7E9FF08B134
:10405000FCF729FC4FF48050079007A91C48FFF794
:104060009FF808B1FCF71FFC1948FFF71FFA08B1C9
:10407000FCF719FC0B940BA915480C94FEF788FF6C
:1040800008B1FCF710FC6020CDE900040294002286
:1040900069460F480494FFF7A3F908B1FCF703FC45
:1040A000042269460A48FFF79BF908B1FCF7FBFBBD
:1040B000082269460648FFF793F908B1FCF7F3FBBD
:1040C0000348FFF7DBF80EB010BD0000000C004005
:1040D000A80D002010B596B000240F9410941194F0
:1040E000129413941C2168461494FCF755FA20216D
:1040F00007A8FCF751FA2D482B490160A721C0E918
:10410000011444F61F61C0E9031444618461FEF7A1
:1041100087FF08B1FCF7C7FB4FF480500F900FA941
:104120002248FFF73DF808B1FCF7BDFB1F48FFF739
:10413000BDF908B1FCF7B7FB139413A91B481494FD
:10414000FEF726FF08B1FCF7AEFB602000904FF4AD
:104150007A70CDE901040394049405940022694621
:1041600012480694FFF73CF908B1FCF79CFB0422C7
:1041700069460E48FFF734F908B1FCF794FB079441
:10418000089409944FF400500A94CDE90B4007A914
:1041900006480E94FEF7D2FE08B1FCF784FB0348F4
:1041A000FFF76CF816B010BD00040140F00D0020C0
:1041B0000C4810B50A4901604FF4E131416000211B
:1041C00081600C22C160C0E904128161C161FFF706
:1041D0009BF9002803D0BDE81040FCF764BB10BD7C
:1041E00000100140800E00200D4810B50B49016001
:1041F0000C49416000214FF480628160C0E90312E4
:104200000C22C0E90521C161FFF77EF9002803D027
:10421000BDE81040FCF747BB10BD0000004800405F
:10422000C40E0020A08601000C4810B50A490160A8
:104230004FF4E1314160002181600C22C160C0E98E
:1042400004128161C161FFF75FF9002803D0BDE866
:104250001040FCF728BB10BD00140140080F0020DF
:1042600010B500220F49104800F051FF08B1FCF7CB
:104270001AFB0E490C4801F03DF908B1FCF713FB9D
:104280000B49094800F05DFD08B1FCF70CFB06483E
:1042900001F0AAF9002803D0BDE81040FCF703BBE9
:1042A00010BD000014000020CC100020E001002010
:1042B00064000020FEE7FEE70148FDF7DDBD0000D9
:1042C000BC1500202DE9F04103680D4604461E6C24
:1042D00003EB4511D1F8080BD4F810E04FF4004778
:1042E0004FF0200C04F57172BEF1010F09D0DFF818
:1042F00098E0764539D1020432D500BFC1F8087B79
:104300003FE0224B5FEA007E04D59E4239D900048B
:10431000F4D436E05FEA806E02D5C1F808CB30E015
:1043200010F0280F2DD19E4201D90004E6D4C5EB30
:10433000C50004EB8000D1F8101BD0F80432C1F3A3
:104340001201591AC0F81412D0F808121944C0F812
:10435000081295B9D4F8100278B9012120680AE052
:1043600080060AD5C1F808CB07E035B9D4F81002A9
:1043700018B90021184601F007FDE9B22046FDF703
:1043800061FC0020BDE8F0810A31544F0A30544FDF
:104390002DE9F84F0E46C1EBC60100EB81048146C2
:1043A0000568D4E914103C34884202D90120BDE8E4
:1043B000F88F081AA168814200D20846C01C8708FD
:1043C00005EB46181BE000BFA0EB010AA0685045B2
:1043D00000D282460AF10300870899F81000009085
:1043E0001FFA8AF3F2B22846E16801F085FFE1681E
:1043F00001EB0A00E060A16901EB0A00A061D8F8B6
:10440000180980B2B84205D3D4E90501814201D22E
:104410000028D9D1D4E90501884208D806F00F0157
:1044200001208840D5F834188143C5F8341800209D
:10443000BDE7000030B5144B1C68656945F04005C8
:1044400065611B68DC6844F01004DC600F4B1C687D
:10445000256825F0010525601C682568ED07F7D162
:104460001D680B4CAC601C68E0601868016118683E
:1044700042601868016841F4802101601868016891
:1044800041F00101016030BDC40E0020AC0F0020DE
:104490000448004070B504460068C168490614D459
:1044A0004FF0FF31C160FDF785F905464FF47A768C
:1044B00007E000BFFDF77EF9401BB04201D90320A1
:1044C00070BD2068C0684006F4D5002070BD01783A
:1044D000407841EA0020704710B5FDF7E1FA04F09A
:1044E0000FF8012803D0BDE8104003F033BD10BD24
:1044F00030B593B030216846FCF74EF814210CA873
:10450000FCF74AF81D480025016841F08051016020
:10451000006800F0805011901948016841F4804112
:1045200001600068022400F4804011900120009096
:10453000000401908001CDE9064006200890A820E3
:10454000CDE9090407200B906846FEF76DF908B124
:1045500072B6FEE70CA90F2081E831004FF4A0509D
:104560000F904FF48050109005210CA8FEF76AF8C8
:10457000002801D072B6FEE713B030BD40380240CB
:10458000007000400248016841F47001016070470A
:1045900088ED00E002F060BCF0B50268254C264DC5
:1045A000264E274F274B4FF0804CA04209D0604544
:1045B00007D0A84205D0B04203D0B84201D09842FB
:1045C00004D122F0700E4A6842EA0E02A0421BD0CB
:1045D000604519D0A84217D0B04215D0B84213D0C8
:1045E000984211D0184DA8420ED0184DA8420BD0B9
:1045F000174DA84208D0174DA84205D0164DA84225
:1046000002D0164DA84203D122F44075CA682A434D
:104610004D6922F080022A4302608A68C2620A68F9
:104620008262A04201D0984201D10969016301214F
:104630004161F0BD0000014000040040000800405E
:10464000000C0040000401400040014000440140D3
:104650000048014000180040001C004000200040BD
:1046600010B5846842EA032224F47F440A432243BB
:10467000826010BD826822F070020A4342F0070196
:1046800081607047F0B5026A22F001020262036A9B
:1046900042688469124E24F073050C682C4323F0A1
:1046A00002058B682B430D4DA84201D0B04205D1C5
:1046B00023F00807CB683B4323F00403A84201D052
:1046C000B04205D14D6922F4407215438A692A43EC
:1046D00042608461496841630362F0BD00000140AB
:1046E00000040140F0B5026A22F010020262026A80
:1046F000436884690D6824F4E64444EA05248D681F
:1047000022F0200242EA05120F4D104EA84201D0BD
:10471000B04206D1CF6822F0800242EA071222F0AE
:104720004002A84201D0B04207D14D6923F4406352
:1047300043EA85038D6943EA8503436084614968E0
:1047400081630262F0BD00000000014000040140EE
:10475000F0B5026A22F480720262026A4368C46998
:1047600022F4007224F073050C68124E2C438D68FD
:1047700042EA05220E4DA84201D0B04206D1CF68D0
:1047800022F4006242EA072222F48062A84201D0A9
:10479000B04207D14D6923F4405343EA05138D69B4
:1047A00043EA05134360C4614968C1630262F0BD16
:1047B000000001400004014030B5026A22F480523A
:1047C0000262046A4268C3690D6823F4E64343EA5F
:1047D00005238D6824F4005444EA0534084DA842AA
:1047E00002D0084DA84204D14D6922F4804242EA29
:1047F00085124260C36149680164046230BD0000F3
:10480000000001400004014010B5036A046A24F06E
:1048100001040462846924F0F00444EA021423F0E1
:104820000A020A438461026210BD10B5036A23F0D4
:10483000100303628369046A23F4704343EA02327B
:1048400024F0A00343EA01118261016210BD00005F
:104850007CB511480624CDE900404FF400750023D3
:104860002A460EA1114803F0F3FD0B480023001F58
:10487000CDE900402A460EA1124803F0E9FD0649A1
:1048800004200839CDE90001002380220EA112483E
:1048900003F0DEFD7CBD00002002002061726D5F30
:1048A0006374726C5F7461736B000000996300083D
:1048B000636F6D6D756E69636174655F7461736B51
:1048C00000000000E56300086D795F746573745F34
:1048D0007461736B000000007563000870B50446D6
:1048E00000680169E26821F44051114301612169C6
:1048F000A068E26908436169114308432168CA68F6
:1049000049F20C639A430243CA6020684169A26974
:1049100021F440711143416131492068884202D03D
:104920003049884202D1FDF73DFF01E0FDF72AFF43
:10493000E2690023192164253226B2F5004F62682E
:1049400028D0A0FB0101930F9200FBF70DFD01465B
:10495000B0FBF5F06FF01802504301EB800006EB5E
:104960000010B0FBF5F000F0F002B1FBF5F002EB47
:104970000012B1FBF5F06FF01803584301EB800013
:1049800006EB0010B0FBF5F000F00F0021681044BA
:10499000886070BDA0FB010192185B41FBF7E4FC4D
:1049A0000146B0FBF5F00201B1FBF5F06FF0180322
:1049B000584301EB800006EBC000B0FBF5F000F0BF
:1049C000F80002EB4002B1FBF5F0584301EB800028
:1049D00006EBC000B0FBF5F000F00700D6E70000E2
:1049E000001001400014014038B52C4800680168EF
:1049F000890603D501684068009038BD28490968D8
:104A0000C906FAD501684068264A00901068016816
:104A10004FF024030C032449046824F001040460CB
:104A20001BD414686068C0F1240080B20880636001
:104A300011680B6843F400230B6011680A6842F0A8
:104A400001020A601228D8D10021184801F022FE84
:104A5000002001F067FC00211AE010684468C4F1EE
:104A60002404A4B20C8043601148816A21F400211F
:104A700081621068016841F001010160122CBCD113
:104A800001210A4801F006FE002001F04BFC012143
:104A9000BDE83840054801F0CBBD0000C40E002041
:104AA00000480040AC0F002028020020F8900020B1
:104AB0000060024078B41E480068C00635D51D4924
:104AC0000868026840680090886B026810681A4B9A
:104AD00005031A4815684FF4007425F001051560A8
:104AE0008A6B15686A68C2F5007292B25A806C606F
:104AF0008B6B1B681C680BD444F400241C60896B0E
:104B000009680B6843F001030B60A0F5806109E0C0
:104B100024F400241C60896B09680B6843F00103CE
:104B20000B60074978BC02F0ABB978BC7047000055
:104B300000140140080F0020280200206C9500207E
:104B40006C9300202DE9F0410C46D0F8C422D0F837
:104B5000BC12F9B104EB840300EB83050026AB69BA
:104B60004BB1C4EBC40702EB8702526CB3FBF2F704
:104B700002FB173282B1C1F81462D0F8C002036997
:104B80002BB1D1F80802224601F5047198470020A4
:104B9000BDE8F0810320FBE700231A462146AE6101
:104BA00000F089FCF3E770B5D0F8BC4205466CB163
:104BB00000F06AFBC4F80C02D5F8C012D4F8040265
:104BC000CA6804F503719047002070BD032070BDD2
:104BD00070B50446812100F0B6FA00252587012131
:104BE000204600F0B0FAA4F878518221204600F067
:104BF000AAFAA4F84C50A4F84E50D4F8BC0248B11C
:104C0000D4F8C00204F52F7440688047206800F093
:104C100040FE2560002070BD10B5D0F8BC4284B1C4
:104C2000D0F8C01259B194F80002FF2807D08B6861
:104C300094F8012221469847FF2084F800020020C2
:104C400010BD032010BD00000A21018000487047FC
:104C500008010020432101800048704758010020CE
:104C60004321018000487047140100204321018046
:104C7000004870479C0100202DE9F04704464FF49E
:104C8000077000F007FE05004FF0000735D0C4F8AC
:104C9000BC52207C4FF010084FF40079012680B3FD
:104CA000402302228121204600F052FB2687402328
:104CB00002220121204600F04BFBA4F87861A4F801
:104CC0004E80082303228221204600F041FBA4F8F5
:104CD0004C60D4F8C00200688047C5F81472C5F86B
:104CE0001872207CD5F80422A8B140230121204667
:104CF00000F03AFB0020BDE8F0870220C4F8BC7247
:104D0000F9E7FFE74B4602228121204600F020FB15
:104D100026874B46CCE74B46E8E710B5D0F8BC12E7
:104D200051B1027C002AD1F8042207D0402301218E
:104D300000F01AFB002010BD032010BD4FF40073DB
:104D4000F5E719B1C0F8C012002070470320704782
:104D5000D0F8BC0218B1C0F804120020704703203C
:104D60007047D0F8BC0228B1C0F81022C0F8081271
:104D700000207047032070472DE9FC410646D0F81B
:104D8000BC7200200C468DF80000ADF8040005460A
:104D900037B1207810F0600128D0202944D102E0FA
:104DA0000320BDE8FC81E288C2B1000660780AD524
:104DB000D6F8C0128B6839469847E288072A00D98E
:104DC0000722394628E087F80002A07987F8010217
:104DD000E2883946304600F051F82AE0D6F8C01291
:104DE000607800228B682146984722E0607830B1D5
:104DF00001281ED00A2809D00B2815D110E096F8FA
:104E00009C02032810D1022201A905E096F89C0219
:104E1000032809D101226946304600F049F808E02C
:104E200096F89C02032804D02146304600F01BF877
:104E300003252846B5E710B5D0F8B8220AB1526864
:104E40009047002010BD134610B50A46002100F01F
:104E50008BFA002010BD134610B50A46002100F061
:104E60002AFB002010BD10B50446802100F008FB8D
:104E70002046BDE81040002100F002BB10B503231E
:104E8000C0F89432C0F858211346C0F85C210A4695
:104E9000002100F069FA002010BD10B50521C0F80E
:104EA000941200231A46194600F05EFA002010BD45
:104EB00010B50223C0F8943282611346C2610A46DB
:104EC000002100F0F8FA002010BD10B50421C0F850
:104ED000941200231A46194600F0EDFA002010BD86
:104EE00010B50A46024903A000F0E1F8004810BDE1
:104EF000C419002043444320436F6E666967000075
:104F000012200880004870473400002010B50A467F
:104F1000024903A000F0CBF8004810BDC4190020DE
:104F200043444320496E7465726661636500000006
:104F300004200880004870473000002010B50A4661
:104F4000024903A000F0B3F8004810BDC4190020C6
:104F500053544D6963726F656C656374726F6E69EB
:104F60006373000010B50A46024903A000F09FF8E1
:104F7000004810BDC419002053544D3332205669E7
:104F8000727475616C20436F6D506F727400000015
:104F900010B51A2008800A480168001D0468001D29
:104FA0000068081809D008220649FEF7F3FB0549F6
:104FB000042210312046FEF7EDFB0248801E10BD92
:104FC000107AFF1F4A000020F8B504460020ADF813
:104FD000000048880D46010A08295FD2DFE801F089
:104FE0005E0409175E5E3C45D4F8B412207C0A6862
:104FF00019E0207C02260028D4F8B80205D0C16A46
:10500000684688470146467039E0816AF8E7C0B2D1
:10501000062843D2DFE800F0030A1014181CD4F865
:10502000B402426805E0694690471CE0D4F8B40237
:10503000826892B3207CF6E7D4F8B402C268F8E73D
:10504000D4F8B4020269F4E7D4F8B4024269F0E794
:10505000D4F8B4028269ECE7207CF0B9D4F8B80245
:10506000416B68468847014609E0207CA8B9D4F81E
:10507000B802016B68468847014607204870EA88F5
:105080008AB1BDF8000040B1824200D90246ADF8B5
:1050900000202046FFF70CFFF8BDFFE72946204619
:1050A000FFF7E1FEF8E72046FFF70FFFF4E770B5E2
:1050B000002300281ED00025044602E06D1CEDB23E
:1050C000641C2678002EF9D1022404EB45041480D8
:1050D0001278CA545B1C0322CA5400245B1C06E0ED
:1050E000CA545B1CDAB28C54521CD3B2401C0278F6
:1050F000002AF5D170BD01004FF0000004D0012955
:1051000001D0022901D0032070470120704778B1F7
:105110000023C0F8B832C0F8C032C0F8CC3209B1B0
:10512000C0F8B412012180F89C12027000F0B0B8EF
:105130000320704710B5D0F8C402FCF7B7FDBDE8F6
:105140001040FFF7D8BF10B5D0F8C402FCF788FDB7
:10515000BDE81040FFF7CFBF70B51646044621B139
:1051600094F89C02032841D048E0D4F8941204F14A
:1051700014000025022932D1D0E902318B4206D930
:105180005A1A826031462046FFF765FE0FE09942C9
:1051900014D14068884211D3D4F8981288420DD2B5
:1051A000002211462046FFF756FEC4F8985200230D
:1051B0001A461946204600F0D7F810E094F89C02F1
:1051C000032805D1D4F8B802C16809B12046884740
:1051D0008021204600F054F92046FFF75EFE94F847
:1051E000A00201280AD184F8A05207E0D4F8B8023E
:1051F00042691AB120469047002800D1002070BDB6
:1052000010B51346044621B194F89C02032823D01C
:105210002AE0D4F8941204F5AA70032924D1D0E925
:10522000021291420AD98A1A8260C068824200D36F
:10523000024619462046FFF706FE15E094F89C0248
:10524000032805D1D4F8B802016909B1204688477E
:105250002046FFF73AFE07E0D4F8B80282691AB197
:1052600020469047002800D1002010BD0020704744
:1052700010B5012180F89C12D0F8B82212B1526802
:1052800001799047002010BDD0F8C402FCF73CBD66
:1052900010B5017839BB15490222C1F80404C0F8E1
:1052A000C4124FF0A0400860042048600020C1E90B
:1052B0000320C1E9062008624862C8620863084604
:1052C000FCF7FCFF08B1FBF7EEFA80210748FCF77A
:1052D00086FC402200210548FCF785FC8022012144
:1052E0000248FCF780FC002010BD0000BC15002027
:1052F0000A0601F07F01D0F8C402C1EBC10100EB46
:10530000810002D590F83E00704790F8FE0170478A
:1053100010B5D0F8B82222B190F89C32032B02D0FD
:1053200004E0032010BD126A02B19047002010BDB6
:1053300010B5D0F8B82222B190F89C32032B02D0DD
:1053400004E0032010BD526A02B19047002010BD56
:1053500010B51C461346D0F8C4022246FCF7DDFC0B
:10536000BDE81040FFF7C7BE10B5D0F8C402FCF787
:1053700004FDBDE81040FFF7BEBE70B50125044630
:1053800080F89C520020C4F894026060C4F8A40223
:10539000D4F8B802E0B1D4F8BC1221B1426812B11D
:1053A0000021204690470022402311462046FFF767
:1053B000CFFF4026A4F864513346002280212046C6
:1053C000C4F86061FFF7C4FFA5840020266270BDA9
:1053D000032070BD90F89C12042903D190F89D120F
:1053E00080F89C120020704710B5D0F8B81221B197
:1053F00090F89C22032A02D004E0032010BDC96962
:1054000001B18847002010BD01740020704710B51D
:10541000D0F8C402FDF724F8BDE81040FFF76BBEDA
:1054200070B5044600F2AA20054600F04DF80120B0
:10543000C4F89402B4F8B002C4F8980294F8AA022E
:1054400010F01F010AD001290ED0022912D000F05D
:1054500080012046BDE8704000F012B82946204681
:10546000BDE8704000F0C2B829462046BDE8704053
:1054700000F0E6B929462046BDE8704000F040B98A
:1054800010B5D0F8C402FCF79CFCBDE81040FFF753
:1054900032BE10B5D0F8C402FCF7FDFFBDE81040E5
:1054A000FFF729BE90F89C1280F89D12042180F825
:1054B0009C120020704710B5D0F8C402FCF7BBFC6A
:1054C000BDE81040FFF717BE70B5054611F8010B97
:1054D0002870087868704C1C2046FEF7F8FF68803A
:1054E000A41C2046FEF7F3FFA880A01CFEF7EFFFE8
:1054F000E88070BD38B504460020ADF8000049B121
:10550000C4F8B812C96A19B168468847C4F8CC0211
:10551000002038BD032038BD02460320D2F8B8323F
:10552000002B02D01B681046184770472DE9F04148
:105530000F462C4E8978002504463170012906D982
:1055400039462046FFF78FFC0320BDE8F08194F830
:105550009C0202280CD003281DD039462046FFF7B4
:1055600082FC31782046FFF766FC03252846ECE7ED
:1055700099B320466160FFF7CFFF050004D039469C
:105580002046FFF770FCF1E72046FFF79EFC032062
:1055900084F89C02EAE74FF00208C1B160688842D3
:1055A0001BD0C1B22046FFF746FC3178204661602F
:1055B000FFF7B2FF050010D039462046FFF753FC35
:1055C00021792046FFF737FC84F89C82CEE784F8E7
:1055D0009C8220466160FFF72EFC2046FFF775FC99
:1055E000C4E7000004010020FFF753BF2DE9F0419C
:1055F0000A78002512F0600208D0202A01D0402A43
:1056000071D1D0F8B8229268904731E04B780022EF
:1056100001260A2B67D2DFE803F0415E6658660870
:1056200005662D29FFF7D0FC5FE004468888D8B9CD
:10563000C888C8B94888802816D200F07F0794F837
:105640009C02032810D084F89E7239462046FFF74A
:10565000DEFE2046FFF739FC1FB1022084F89C02D1
:1056600043E084F89C6240E020463CE0FFF75EFFA8
:1056700005463AE0CB88012B35D190F89C32012BBE
:1056800004D0022B02D0032B2DD104E08260012232
:1056900000F1080116E00122011D13E090F89C22A0
:1056A000012A03D0022A01D0032A1CD1CA88022A67
:1056B00019D1C660D0F8A41209B10321C160022239
:1056C00000F10C01FFF7F4FB0FE0498801290CD130
:1056D000C0F8A46211E090F89C32012B08D0022B94
:1056E00006D0032B04D0FFF7BEFB2846BDE8F081AF
:1056F00049880129F9D1C0F8A422FFF7E6FBF4E7B5
:105700002DE9F0410D46044628780026097910F06D
:1057100060000BD0202801D040286DD1D4F8B80209
:105720002946826820469047064686E06878A8B3F6
:10573000012822D003287CD194F89C02022802D0B0
:10574000032876D10BE0002973D0802971D0204640
:10575000FFF796FE80212046FFF792FE6DE06888F5
:1057600038B931B1802904D0E88810B92046FFF754
:1057700087FE2046FFF7A9FB5FE094F89C02022811
:10578000E1D0032855D16888A8BB480602D020463E
:10579000FFF7D0FC2046FFF798FBBFE7FFE794F840
:1057A0009C020027022802D0032842D111E009B14F
:1057B00080293ED1080601F07F0000EB800004EB59
:1057C000800101D5143101E001F5AA7102220F60B8
:1057D0002BE0080601F00F0000EB800004EB8000D6
:1057E0000BD5808C40B101F07F0000EB800004EB12
:1057F000800514350CE020E01BE0B0F86401C0B176
:1058000001F07F0000EB800004EB800505F5AA7530
:1058100041B1802906D02046FFF76AFD10B1012072
:10582000286000E02F60022229462046FFF740FB57
:1058300003E029462046FFF716FB3046BDE8F0811D
:1058400070B50646087800240D4610F0600003D0BD
:10585000202801D0402817D196F89C02012803D0B7
:10586000022801D003280FD1287901280CD8D6F8B6
:10587000B8028268304690470446E888204306D143
:105880003046FFF722FB02E03046FFF7ECFA2046F5
:1058900070BD7047004870479C13002070B50A78AF
:1058A000012302F00F054E78AB401B4CD0F81C587A
:1058B000012E17D045EA0343C0F81C3800EB421014
:1058C000D0F8002B12040BD4D0F8002B0B89C97828
:1058D000C3F30A031A4344EA81410A43C0F8002B88
:1058E000002070BD9BB21D43C0F81C5800EB421055
:1058F000D0F800391B04F3D4D0F800390D89C978E9
:10590000C5F30A0589042B4341EA82510B43234323
:10591000C0F80039E4E7000000800010D0F800195A
:105920006FF30A01C0F80019D0F8041841F480712F
:10593000C0F804180020704770B5044606990A9E06
:10594000049D0D98012916D0E06840F04000E06009
:10595000204600F02BF8A16B1EB321F48031A16327
:10596000012D07D1A16841F00601A160A16841F0B5
:105970002001A16070BDA16B21F48031A163E168B9
:10598000094A1140E160E16821F44011E160012819
:1059900003D1E06840F48010E060204600F006F893
:1059A000DEE741F48031DAE7BFFFBDFF08B5002232
:1059B0000D490092009B5B1C00938B420CD803693D
:1059C000002BF7DA0092026942F001020261009AAC
:1059D000521C00928A4201D9032008BD0269D207F5
:1059E000F5D1002008BD0000400D030030B54C7813
:1059F0000A78012300EB4212012C2CD0D2F8004B84
:105A0000002C0BDAD2F8004B44F00064C2F8004BD3
:105A1000D2F8004B44F08044C2F8004BD0F83C5818
:105A20000C7804F00F0403FA04F425EA0444C0F8E7
:105A30003C48D0F81C48097801F00F018B4024EA5B
:105A40000341C0F81C18D2F8000B19490840C2F8ED
:105A5000000B002030BDD2F80049002C0BDAD2F840
:105A6000004944F00064C2F80049D2F8004944F00B
:105A70008044C2F80049D0F83C480D7805F00F0585
:105A800003FA05F5ADB2AC43C0F83C48D0F81C4869
:105A9000097801F00F018B4099B28C43C0F81C4883
:105AA000D2F8000903490840C2F80009D1E7000014
:105AB0000078F3EF007833ECD0F8001E21F00301FA
:105AC000C0F8001ED0F8041821F00201C0F8041834
:105AD00000207047D0F8001E21F00301C0F8001E1E
